{
  "_format": "hh-sol-artifact-1",
  "contractName": "PokePortal",
  "sourceName": "contracts/PokePortal.sol",
  "abi": [
    {
      "inputs": [],
      "stateMutability": "nonpayable",
      "type": "constructor"
    },
    {
      "inputs": [],
      "name": "getLastPoker",
      "outputs": [
        {
          "internalType": "address",
          "name": "",
          "type": "address"
        }
      ],
      "stateMutability": "view",
      "type": "function"
    },
    {
      "inputs": [],
      "name": "getTotalPokes",
      "outputs": [
        {
          "internalType": "uint256",
          "name": "",
          "type": "uint256"
        }
      ],
      "stateMutability": "view",
      "type": "function"
    },
    {
      "inputs": [],
      "name": "lastPoker",
      "outputs": [
        {
          "internalType": "address",
          "name": "",
          "type": "address"
        }
      ],
      "stateMutability": "view",
      "type": "function"
    },
    {
      "inputs": [],
      "name": "poke",
      "outputs": [],
      "stateMutability": "nonpayable",
      "type": "function"
    }
  ],
  "bytecode": "0x608060405234801561001057600080fd5b5061003c60405180606001604052806025815260200161081e6025913961004160201b6101eb1760201c565b6101c4565b6100dd816040516024016100559190610142565b6040516020818303038152906040527f41304fac000000000000000000000000000000000000000000000000000000007bffffffffffffffffffffffffffffffffffffffffffffffffffffffff19166020820180517bffffffffffffffffffffffffffffffffffffffffffffffffffffffff83818316178352505050506100e060201b60201c565b50565b60008151905060006a636f6e736f6c652e6c6f679050602083016000808483855afa5050505050565b600061011482610164565b61011e818561016f565b935061012e818560208601610180565b610137816101b3565b840191505092915050565b6000602082019050818103600083015261015c8184610109565b905092915050565b600081519050919050565b600082825260208201905092915050565b60005b8381101561019e578082015181840152602081019050610183565b838111156101ad576000848401525b50505050565b6000601f19601f8301169050919050565b61064b806101d36000396000f3fe608060405234801561001057600080fd5b506004361061004c5760003560e01c80631346791914610051578063181783581461006f5780633b402f6e146100795780639badb8c814610097575b600080fd5b6100596100b5565b60405161006691906104d9565b60405180910390f35b610077610100565b005b61008161019b565b60405161008e919061043c565b60405180910390f35b61009f6101c5565b6040516100ac919061043c565b60405180910390f35b60006100f86040518060400160405280601781526020017f5765206861766520256420746f74616c20776176657321000000000000000000815250600054610284565b600054905090565b60016000808282546101129190610510565b925050819055506101586040518060400160405280600d81526020017f257320686173207761766564210000000000000000000000000000000000000081525033610320565b33600160006101000a81548173ffffffffffffffffffffffffffffffffffffffff021916908373ffffffffffffffffffffffffffffffffffffffff160217905550565b6000600160009054906101000a900473ffffffffffffffffffffffffffffffffffffffff16905090565b600160009054906101000a900473ffffffffffffffffffffffffffffffffffffffff1681565b610281816040516024016101ff9190610457565b6040516020818303038152906040527f41304fac000000000000000000000000000000000000000000000000000000007bffffffffffffffffffffffffffffffffffffffffffffffffffffffff19166020820180517bffffffffffffffffffffffffffffffffffffffffffffffffffffffff83818316178352505050506103bc565b50565b61031c828260405160240161029a9291906104a9565b6040516020818303038152906040527f9710a9d0000000000000000000000000000000000000000000000000000000007bffffffffffffffffffffffffffffffffffffffffffffffffffffffff19166020820180517bffffffffffffffffffffffffffffffffffffffffffffffffffffffff83818316178352505050506103bc565b5050565b6103b88282604051602401610336929190610479565b6040516020818303038152906040527f319af333000000000000000000000000000000000000000000000000000000007bffffffffffffffffffffffffffffffffffffffffffffffffffffffff19166020820180517bffffffffffffffffffffffffffffffffffffffffffffffffffffffff83818316178352505050506103bc565b5050565b60008151905060006a636f6e736f6c652e6c6f679050602083016000808483855afa5050505050565b6103ee81610566565b82525050565b60006103ff826104f4565b61040981856104ff565b93506104198185602086016105a2565b61042281610604565b840191505092915050565b61043681610598565b82525050565b600060208201905061045160008301846103e5565b92915050565b6000602082019050818103600083015261047181846103f4565b905092915050565b6000604082019050818103600083015261049381856103f4565b90506104a260208301846103e5565b9392505050565b600060408201905081810360008301526104c381856103f4565b90506104d2602083018461042d565b9392505050565b60006020820190506104ee600083018461042d565b92915050565b600081519050919050565b600082825260208201905092915050565b600061051b82610598565b915061052683610598565b9250827fffffffffffffffffffffffffffffffffffffffffffffffffffffffffffffffff0382111561055b5761055a6105d5565b5b828201905092915050565b600061057182610578565b9050919050565b600073ffffffffffffffffffffffffffffffffffffffff82169050919050565b6000819050919050565b60005b838110156105c05780820151818401526020810190506105a5565b838111156105cf576000848401525b50505050565b7f4e487b7100000000000000000000000000000000000000000000000000000000600052601160045260246000fd5b6000601f19601f830116905091905056fea264697066735822122080bd0135f0e3a20c69c5ecb1d1c25909dd2bf2c61688cc46208053ef56bc3dfb64736f6c63430008040033596f20796f2c204920616d206120636f6e747261637420616e64204920616d20736d617274",
  "linkReferences": {},
  "deployedLinkReferences": {}
}