{
  "_format": "hh-sol-artifact-1",
  "contractName": "PokeContract",
  "sourceName": "contracts/PokeContract.sol",
  "abi": [
    {
      "inputs": [],
      "stateMutability": "nonpayable",
      "type": "constructor"
    },
    {
      "anonymous": false,
      "inputs": [
        {
          "indexed": true,
          "internalType": "address",
          "name": "from",
          "type": "address"
        },
        {
          "indexed": false,
          "internalType": "uint256",
          "name": "timestamp",
          "type": "uint256"
        },
        {
          "indexed": false,
          "internalType": "string",
          "name": "message",
          "type": "string"
        }
      ],
      "name": "NewPoke",
      "type": "event"
    },
    {
      "inputs": [],
      "name": "getAllPokes",
      "outputs": [
        {
          "components": [
            {
              "internalType": "address",
              "name": "poker",
              "type": "address"
            },
            {
              "internalType": "uint256",
              "name": "timestamp",
              "type": "uint256"
            },
            {
              "internalType": "string",
              "name": "message",
              "type": "string"
            }
          ],
          "internalType": "struct PokeContract.Poke[]",
          "name": "",
          "type": "tuple[]"
        }
      ],
      "stateMutability": "view",
      "type": "function"
    },
    {
      "inputs": [],
      "name": "getFrontAddress",
      "outputs": [
        {
          "internalType": "address",
          "name": "",
          "type": "address"
        }
      ],
      "stateMutability": "view",
      "type": "function"
    },
    {
      "inputs": [],
      "name": "getTotalPokes",
      "outputs": [
        {
          "internalType": "uint256",
          "name": "",
          "type": "uint256"
        }
      ],
      "stateMutability": "view",
      "type": "function"
    },
    {
      "inputs": [
        {
          "internalType": "string",
          "name": "_message",
          "type": "string"
        }
      ],
      "name": "poke",
      "outputs": [],
      "stateMutability": "nonpayable",
      "type": "function"
    }
  ],
  "bytecode": "0x60806040523480156200001157600080fd5b506200005d6040518060400160405280601b81526020017f536d61727420436f6e747261637420436f6e737472756374696f6e00000000008152506200006360201b620004491760201c565b620001f7565b62000103816040516024016200007a919062000170565b6040516020818303038152906040527f41304fac000000000000000000000000000000000000000000000000000000007bffffffffffffffffffffffffffffffffffffffffffffffffffffffff19166020820180517bffffffffffffffffffffffffffffffffffffffffffffffffffffffff83818316178352505050506200010660201b60201c565b50565b60008151905060006a636f6e736f6c652e6c6f679050602083016000808483855afa5050505050565b60006200013c8262000194565b6200014881856200019f565b93506200015a818560208601620001b0565b6200016581620001e6565b840191505092915050565b600060208201905081810360008301526200018c81846200012f565b905092915050565b600081519050919050565b600082825260208201905092915050565b60005b83811015620001d0578082015181840152602081019050620001b3565b83811115620001e0576000848401525b50505050565b6000601f19601f8301169050919050565b610d2880620002076000396000f3fe608060405234801561001057600080fd5b506004361061004c5760003560e01c80631346791914610051578063a2882b791461006f578063c9779c351461008d578063eda21f14146100a9575b600080fd5b6100596100c7565b60405161006691906109ed565b60405180910390f35b610077610112565b6040516100849190610919565b60405180910390f35b6100a760048036038101906100a29190610751565b61019d565b005b6100b16102f8565b6040516100be9190610934565b60405180910390f35b600061010a6040518060400160405280601781526020017f5765206861766520256420746f74616c207761766573210000000000000000008152506000546104e2565b600054905090565b600080600180549050111561019557600160008154811061015c577f4e487b7100000000000000000000000000000000000000000000000000000000600052603260045260246000fd5b906000526020600020906003020160000160009054906101000a900473ffffffffffffffffffffffffffffffffffffffff16905061019a565b600090505b90565b60016000808282546101af9190610af4565b925050819055506101d9604051806060016040528060298152602001610cca60299139338361057e565b600160405180606001604052803373ffffffffffffffffffffffffffffffffffffffff16815260200142815260200183815250908060018154018082558091505060019003906000526020600020906003020160009091909190915060008201518160000160006101000a81548173ffffffffffffffffffffffffffffffffffffffff021916908373ffffffffffffffffffffffffffffffffffffffff1602179055506020820151816001015560408201518160020190805190602001906102a2929190610646565b5050503373ffffffffffffffffffffffffffffffffffffffff167f4f82870d3c424fade346d15919991f9b3c200d77d572675c7991ea5b7922c98d42836040516102ed929190610a08565b60405180910390a250565b60606001805480602002602001604051908101604052809291908181526020016000905b8282101561044057838290600052602060002090600302016040518060600160405290816000820160009054906101000a900473ffffffffffffffffffffffffffffffffffffffff1673ffffffffffffffffffffffffffffffffffffffff1673ffffffffffffffffffffffffffffffffffffffff168152602001600182015481526020016002820180546103af90610bc8565b80601f01602080910402602001604051908101604052809291908181526020018280546103db90610bc8565b80156104285780601f106103fd57610100808354040283529160200191610428565b820191906000526020600020905b81548152906001019060200180831161040b57829003601f168201915b5050505050815250508152602001906001019061031c565b50505050905090565b6104df8160405160240161045d9190610956565b6040516020818303038152906040527f41304fac000000000000000000000000000000000000000000000000000000007bffffffffffffffffffffffffffffffffffffffffffffffffffffffff19166020820180517bffffffffffffffffffffffffffffffffffffffffffffffffffffffff838183161783525050505061061d565b50565b61057a82826040516024016104f89291906109bd565b6040516020818303038152906040527f9710a9d0000000000000000000000000000000000000000000000000000000007bffffffffffffffffffffffffffffffffffffffffffffffffffffffff19166020820180517bffffffffffffffffffffffffffffffffffffffffffffffffffffffff838183161783525050505061061d565b5050565b61061883838360405160240161059693929190610978565b6040516020818303038152906040527fe0e9ad4f000000000000000000000000000000000000000000000000000000007bffffffffffffffffffffffffffffffffffffffffffffffffffffffff19166020820180517bffffffffffffffffffffffffffffffffffffffffffffffffffffffff838183161783525050505061061d565b505050565b60008151905060006a636f6e736f6c652e6c6f679050602083016000808483855afa5050505050565b82805461065290610bc8565b90600052602060002090601f01602090048101928261067457600085556106bb565b82601f1061068d57805160ff19168380011785556106bb565b828001600101855582156106bb579182015b828111156106ba57825182559160200191906001019061069f565b5b5090506106c891906106cc565b5090565b5b808211156106e55760008160009055506001016106cd565b5090565b60006106fc6106f784610a5d565b610a38565b90508281526020810184848401111561071457600080fd5b61071f848285610b86565b509392505050565b600082601f83011261073857600080fd5b81356107488482602086016106e9565b91505092915050565b60006020828403121561076357600080fd5b600082013567ffffffffffffffff81111561077d57600080fd5b61078984828501610727565b91505092915050565b600061079e83836108ab565b905092915050565b6107af81610b4a565b82525050565b6107be81610b4a565b82525050565b60006107cf82610a9e565b6107d98185610ac1565b9350836020820285016107eb85610a8e565b8060005b8581101561082757848403895281516108088582610792565b945061081383610ab4565b925060208a019950506001810190506107ef565b50829750879550505050505092915050565b600061084482610aa9565b61084e8185610ad2565b935061085e818560208601610b95565b61086781610cb8565b840191505092915050565b600061087d82610aa9565b6108878185610ae3565b9350610897818560208601610b95565b6108a081610cb8565b840191505092915050565b60006060830160008301516108c360008601826107a6565b5060208301516108d660208601826108fb565b50604083015184820360408601526108ee8282610839565b9150508091505092915050565b61090481610b7c565b82525050565b61091381610b7c565b82525050565b600060208201905061092e60008301846107b5565b92915050565b6000602082019050818103600083015261094e81846107c4565b905092915050565b600060208201905081810360008301526109708184610872565b905092915050565b600060608201905081810360008301526109928186610872565b90506109a160208301856107b5565b81810360408301526109b38184610872565b9050949350505050565b600060408201905081810360008301526109d78185610872565b90506109e6602083018461090a565b9392505050565b6000602082019050610a02600083018461090a565b92915050565b6000604082019050610a1d600083018561090a565b8181036020830152610a2f8184610872565b90509392505050565b6000610a42610a53565b9050610a4e8282610bfa565b919050565b6000604051905090565b600067ffffffffffffffff821115610a7857610a77610c89565b5b610a8182610cb8565b9050602081019050919050565b6000819050602082019050919050565b600081519050919050565b600081519050919050565b6000602082019050919050565b600082825260208201905092915050565b600082825260208201905092915050565b600082825260208201905092915050565b6000610aff82610b7c565b9150610b0a83610b7c565b9250827fffffffffffffffffffffffffffffffffffffffffffffffffffffffffffffffff03821115610b3f57610b3e610c2b565b5b828201905092915050565b6000610b5582610b5c565b9050919050565b600073ffffffffffffffffffffffffffffffffffffffff82169050919050565b6000819050919050565b82818337600083830152505050565b60005b83811015610bb3578082015181840152602081019050610b98565b83811115610bc2576000848401525b50505050565b60006002820490506001821680610be057607f821691505b60208210811415610bf457610bf3610c5a565b5b50919050565b610c0382610cb8565b810181811067ffffffffffffffff82111715610c2257610c21610c89565b5b80604052505050565b7f4e487b7100000000000000000000000000000000000000000000000000000000600052601160045260246000fd5b7f4e487b7100000000000000000000000000000000000000000000000000000000600052602260045260246000fd5b7f4e487b7100000000000000000000000000000000000000000000000000000000600052604160045260246000fd5b6000601f19601f830116905091905056fe2573206861732077617665642120416c736f2077616e74656420796f7520746f206b6e6f773a202573a26469706673582212209a1ce81c05dcbd48881a4ff7e835f5e7b3ca06fd7520f359e54e94bf802623f264736f6c63430008040033",
  "linkReferences": {},
  "deployedLinkReferences": {}
}